{
  "_format": "hh-sol-artifact-1",
  "contractName": "Tree",
  "sourceName": "contracts/Tree.sol",
  "abi": [
    {
      "inputs": [],
      "stateMutability": "nonpayable",
      "type": "constructor"
    },
    {
      "inputs": [
        {
          "internalType": "string",
          "name": "input",
          "type": "string"
        }
      ],
      "name": "encode",
      "outputs": [
        {
          "internalType": "bytes",
          "name": "",
          "type": "bytes"
        }
      ],
      "stateMutability": "pure",
      "type": "function"
    },
    {
      "inputs": [
        {
          "internalType": "uint256",
          "name": "",
          "type": "uint256"
        }
      ],
      "name": "hashes",
      "outputs": [
        {
          "internalType": "bytes32",
          "name": "",
          "type": "bytes32"
        }
      ],
      "stateMutability": "view",
      "type": "function"
    },
    {
      "inputs": [
        {
          "internalType": "string",
          "name": "input",
          "type": "string"
        }
      ],
      "name": "makeHash",
      "outputs": [
        {
          "internalType": "bytes32",
          "name": "",
          "type": "bytes32"
        }
      ],
      "stateMutability": "pure",
      "type": "function"
    },
    {
      "inputs": [
        {
          "internalType": "string",
          "name": "transactions",
          "type": "string"
        },
        {
          "internalType": "uint256",
          "name": "index",
          "type": "uint256"
        },
        {
          "internalType": "bytes32",
          "name": "root",
          "type": "bytes32"
        },
        {
          "internalType": "bytes32[]",
          "name": "proof",
          "type": "bytes32[]"
        }
      ],
      "name": "verify",
      "outputs": [
        {
          "internalType": "bool",
          "name": "",
          "type": "bool"
        }
      ],
      "stateMutability": "pure",
      "type": "function"
    }
  ],
  "bytecode": "0x608060405260405180602001604052806040518060800160405280605281526020016200129b6052913981525060019060016200003e929190620002ce565b503480156200004c57600080fd5b5060005b6004811015620001515760006200011560018360048110620000775762000076620003ae565b5b01805462000085906200040c565b80601f0160208091040260200160405190810160405280929190818152602001828054620000b3906200040c565b8015620001045780601f10620000d85761010080835404028352916020019162000104565b820191906000526020600020905b815481529060010190602001808311620000e657829003601f168201915b50505050506200028260201b60201c565b9080600181540180825580915050600190039060005260206000200160009091909190915055808062000148906200047a565b91505062000050565b5060006004905060005b60008211156200027a5760005b600183620001779190620004c7565b8110156200025257600080828462000190919062000502565b81548110620001a457620001a3620003ae565b5b9060005260206000200154600060018486620001c1919062000502565b620001cd919062000502565b81548110620001e157620001e0620003ae565b5b9060005260206000200154604051602001620001ff9291906200056c565b6040516020818303038152906040528051906020012090806001815401808255809150506001900390600052602060002001600090919091909150556002816200024a919062000502565b905062000168565b50818162000261919062000502565b9050600282620002729190620005cb565b91506200015b565b50506200097d565b60006200029582620002a360201b60201c565b805190602001209050919050565b606081604051602001620002b891906200067c565b6040516020818303038152906040529050919050565b82600481019282156200030e579160200282015b828111156200030d578251829081620002fc919062000896565b5091602001919060010190620002e2565b5b5090506200031d919062000321565b5090565b5b808211156200034557600081816200033b919062000349565b5060010162000322565b5090565b50805462000357906200040c565b6000825580601f106200036b57506200038c565b601f0160209004906000526020600020908101906200038b91906200038f565b5b50565b5b80821115620003aa57600081600090555060010162000390565b5090565b7f4e487b7100000000000000000000000000000000000000000000000000000000600052603260045260246000fd5b7f4e487b7100000000000000000000000000000000000000000000000000000000600052602260045260246000fd5b600060028204905060018216806200042557607f821691505b6020821081036200043b576200043a620003dd565b5b50919050565b7f4e487b7100000000000000000000000000000000000000000000000000000000600052601160045260246000fd5b6000819050919050565b6000620004878262000470565b91507fffffffffffffffffffffffffffffffffffffffffffffffffffffffffffffffff8203620004bc57620004bb62000441565b5b600182019050919050565b6000620004d48262000470565b9150620004e18362000470565b9250828203905081811115620004fc57620004fb62000441565b5b92915050565b60006200050f8262000470565b91506200051c8362000470565b925082820190508082111562000537576200053662000441565b5b92915050565b6000819050919050565b6000819050919050565b6200056662000560826200053d565b62000547565b82525050565b60006200057a828562000551565b6020820191506200058c828462000551565b6020820191508190509392505050565b7f4e487b7100000000000000000000000000000000000000000000000000000000600052601260045260246000fd5b6000620005d88262000470565b9150620005e58362000470565b925082620005f857620005f76200059c565b5b828204905092915050565b600081519050919050565b600081905092915050565b60005b83811015620006395780820151818401526020810190506200061c565b60008484015250505050565b6000620006528262000603565b6200065e81856200060e565b93506200067081856020860162000619565b80840191505092915050565b60006200068a828462000645565b915081905092915050565b7f4e487b7100000000000000000000000000000000000000000000000000000000600052604160045260246000fd5b60008190508160005260206000209050919050565b60006020601f8301049050919050565b600082821b905092915050565b600060088302620007287fffffffffffffffffffffffffffffffffffffffffffffffffffffffffffffffff82620006e9565b620007348683620006e9565b95508019841693508086168417925050509392505050565b6000819050919050565b600062000777620007716200076b8462000470565b6200074c565b62000470565b9050919050565b6000819050919050565b620007938362000756565b620007ab620007a2826200077e565b848454620006f6565b825550505050565b600090565b620007c2620007b3565b620007cf81848462000788565b505050565b5b81811015620007f757620007eb600082620007b8565b600181019050620007d5565b5050565b601f82111562000846576200081081620006c4565b6200081b84620006d9565b810160208510156200082b578190505b620008436200083a85620006d9565b830182620007d4565b50505b505050565b600082821c905092915050565b60006200086b600019846008026200084b565b1980831691505092915050565b600062000886838362000858565b9150826002028217905092915050565b620008a18262000603565b67ffffffffffffffff811115620008bd57620008bc62000695565b5b620008c982546200040c565b620008d6828285620007fb565b600060209050601f8311600181146200090e5760008415620008f9578287015190505b62000905858262000878565b86555062000975565b601f1984166200091e86620006c4565b60005b82811015620009485784890151825560018201915060208501945060208101905062000921565b8683101562000968578489015162000964601f89168262000858565b8355505b6001600288020188555050505b505050505050565b61090e806200098d6000396000f3fe608060405234801561001057600080fd5b506004361061004c5760003560e01c80632637cccf14610051578063501895ae1461008157806352de70af146100b15780636a11b2a8146100e1575b600080fd5b61006b600480360381019061006691906104e0565b610111565b604051610078919061059a565b60405180910390f35b61009b600480360381019061009691906105b5565b6101ec565b6040516100a891906105f1565b60405180910390f35b6100cb60048036038101906100c6919061060c565b610210565b6040516100d891906105f1565b60405180910390f35b6100fb60048036038101906100f6919061060c565b610229565b60405161010891906106d4565b60405180910390f35b60008061011d86610210565b905060005b83518110156101dd5760008482815181106101405761013f6106f6565b5b6020026020010151905060006002886101599190610754565b0361018e5782816040516020016101719291906107a6565b6040516020818303038152906040528051906020012092506101ba565b80836040516020016101a19291906107a6565b6040516020818303038152906040528051906020012092505b6002876101c79190610801565b96505080806101d590610832565b915050610122565b50838114915050949350505050565b600081815481106101fc57600080fd5b906000526020600020016000915090505481565b600061021b82610229565b805190602001209050919050565b60608160405160200161023c91906108c1565b6040516020818303038152906040529050919050565b6000604051905090565b600080fd5b600080fd5b600080fd5b600080fd5b6000601f19601f8301169050919050565b7f4e487b7100000000000000000000000000000000000000000000000000000000600052604160045260246000fd5b6102b982610270565b810181811067ffffffffffffffff821117156102d8576102d7610281565b5b80604052505050565b60006102eb610252565b90506102f782826102b0565b919050565b600067ffffffffffffffff82111561031757610316610281565b5b61032082610270565b9050602081019050919050565b82818337600083830152505050565b600061034f61034a846102fc565b6102e1565b90508281526020810184848401111561036b5761036a61026b565b5b61037684828561032d565b509392505050565b600082601f83011261039357610392610266565b5b81356103a384826020860161033c565b91505092915050565b6000819050919050565b6103bf816103ac565b81146103ca57600080fd5b50565b6000813590506103dc816103b6565b92915050565b6000819050919050565b6103f5816103e2565b811461040057600080fd5b50565b600081359050610412816103ec565b92915050565b600067ffffffffffffffff82111561043357610432610281565b5b602082029050602081019050919050565b600080fd5b600061045c61045784610418565b6102e1565b9050808382526020820190506020840283018581111561047f5761047e610444565b5b835b818110156104a857806104948882610403565b845260208401935050602081019050610481565b5050509392505050565b600082601f8301126104c7576104c6610266565b5b81356104d7848260208601610449565b91505092915050565b600080600080608085870312156104fa576104f961025c565b5b600085013567ffffffffffffffff81111561051857610517610261565b5b6105248782880161037e565b9450506020610535878288016103cd565b935050604061054687828801610403565b925050606085013567ffffffffffffffff81111561056757610566610261565b5b610573878288016104b2565b91505092959194509250565b60008115159050919050565b6105948161057f565b82525050565b60006020820190506105af600083018461058b565b92915050565b6000602082840312156105cb576105ca61025c565b5b60006105d9848285016103cd565b91505092915050565b6105eb816103e2565b82525050565b600060208201905061060660008301846105e2565b92915050565b6000602082840312156106225761062161025c565b5b600082013567ffffffffffffffff8111156106405761063f610261565b5b61064c8482850161037e565b91505092915050565b600081519050919050565b600082825260208201905092915050565b60005b8381101561068f578082015181840152602081019050610674565b60008484015250505050565b60006106a682610655565b6106b08185610660565b93506106c0818560208601610671565b6106c981610270565b840191505092915050565b600060208201905081810360008301526106ee818461069b565b905092915050565b7f4e487b7100000000000000000000000000000000000000000000000000000000600052603260045260246000fd5b7f4e487b7100000000000000000000000000000000000000000000000000000000600052601260045260246000fd5b600061075f826103ac565b915061076a836103ac565b92508261077a57610779610725565b5b828206905092915050565b6000819050919050565b6107a061079b826103e2565b610785565b82525050565b60006107b2828561078f565b6020820191506107c2828461078f565b6020820191508190509392505050565b7f4e487b7100000000000000000000000000000000000000000000000000000000600052601160045260246000fd5b600061080c826103ac565b9150610817836103ac565b92508261082757610826610725565b5b828204905092915050565b600061083d826103ac565b91507fffffffffffffffffffffffffffffffffffffffffffffffffffffffffffffffff820361086f5761086e6107d2565b5b600182019050919050565b600081519050919050565b600081905092915050565b600061089b8261087a565b6108a58185610885565b93506108b5818560208601610671565b80840191505092915050565b60006108cd8284610890565b91508190509291505056fea2646970667358221220c0bc6ae842406fdecd989d75b4907f3dabdb68f94d5173392e26f4526ada9a2664736f6c634300081100335458313a20536865726c6f6f6b202d3e204a6f686e5458313a204a6f686e202d3e20536865726c6f6f6b5458313a204d61727279202d3e20536865726c6f6f6b5458313a204a6f686e202d3e204d61727279",
  "linkReferences": {},
  "deployedLinkReferences": {}
}